{
  "_format": "hh-sol-artifact-1",
  "contractName": "PropertyPulseToken",
  "sourceName": "contracts/PropertyPulseToken.sol",
  "abi": [
    {
      "inputs": [],
      "stateMutability": "nonpayable",
      "type": "constructor"
    },
    {
      "inputs": [
        {
          "internalType": "address",
          "name": "sender",
          "type": "address"
        },
        {
          "internalType": "uint256",
          "name": "balance",
          "type": "uint256"
        },
        {
          "internalType": "uint256",
          "name": "needed",
          "type": "uint256"
        },
        {
          "internalType": "uint256",
          "name": "tokenId",
          "type": "uint256"
        }
      ],
      "name": "ERC1155InsufficientBalance",
      "type": "error"
    },
    {
      "inputs": [
        {
          "internalType": "address",
          "name": "approver",
          "type": "address"
        }
      ],
      "name": "ERC1155InvalidApprover",
      "type": "error"
    },
    {
      "inputs": [
        {
          "internalType": "uint256",
          "name": "idsLength",
          "type": "uint256"
        },
        {
          "internalType": "uint256",
          "name": "valuesLength",
          "type": "uint256"
        }
      ],
      "name": "ERC1155InvalidArrayLength",
      "type": "error"
    },
    {
      "inputs": [
        {
          "internalType": "address",
          "name": "operator",
          "type": "address"
        }
      ],
      "name": "ERC1155InvalidOperator",
      "type": "error"
    },
    {
      "inputs": [
        {
          "internalType": "address",
          "name": "receiver",
          "type": "address"
        }
      ],
      "name": "ERC1155InvalidReceiver",
      "type": "error"
    },
    {
      "inputs": [
        {
          "internalType": "address",
          "name": "sender",
          "type": "address"
        }
      ],
      "name": "ERC1155InvalidSender",
      "type": "error"
    },
    {
      "inputs": [
        {
          "internalType": "address",
          "name": "operator",
          "type": "address"
        },
        {
          "internalType": "address",
          "name": "owner",
          "type": "address"
        }
      ],
      "name": "ERC1155MissingApprovalForAll",
      "type": "error"
    },
    {
      "inputs": [
        {
          "internalType": "address",
          "name": "owner",
          "type": "address"
        }
      ],
      "name": "OwnableInvalidOwner",
      "type": "error"
    },
    {
      "inputs": [
        {
          "internalType": "address",
          "name": "account",
          "type": "address"
        }
      ],
      "name": "OwnableUnauthorizedAccount",
      "type": "error"
    },
    {
      "anonymous": false,
      "inputs": [
        {
          "indexed": true,
          "internalType": "address",
          "name": "account",
          "type": "address"
        },
        {
          "indexed": true,
          "internalType": "address",
          "name": "operator",
          "type": "address"
        },
        {
          "indexed": false,
          "internalType": "bool",
          "name": "approved",
          "type": "bool"
        }
      ],
      "name": "ApprovalForAll",
      "type": "event"
    },
    {
      "anonymous": false,
      "inputs": [
        {
          "indexed": true,
          "internalType": "address",
          "name": "previousOwner",
          "type": "address"
        },
        {
          "indexed": true,
          "internalType": "address",
          "name": "newOwner",
          "type": "address"
        }
      ],
      "name": "OwnershipTransferred",
      "type": "event"
    },
    {
      "anonymous": false,
      "inputs": [
        {
          "indexed": true,
          "internalType": "address",
          "name": "operator",
          "type": "address"
        },
        {
          "indexed": true,
          "internalType": "address",
          "name": "from",
          "type": "address"
        },
        {
          "indexed": true,
          "internalType": "address",
          "name": "to",
          "type": "address"
        },
        {
          "indexed": false,
          "internalType": "uint256[]",
          "name": "ids",
          "type": "uint256[]"
        },
        {
          "indexed": false,
          "internalType": "uint256[]",
          "name": "values",
          "type": "uint256[]"
        }
      ],
      "name": "TransferBatch",
      "type": "event"
    },
    {
      "anonymous": false,
      "inputs": [
        {
          "indexed": true,
          "internalType": "address",
          "name": "operator",
          "type": "address"
        },
        {
          "indexed": true,
          "internalType": "address",
          "name": "from",
          "type": "address"
        },
        {
          "indexed": true,
          "internalType": "address",
          "name": "to",
          "type": "address"
        },
        {
          "indexed": false,
          "internalType": "uint256",
          "name": "id",
          "type": "uint256"
        },
        {
          "indexed": false,
          "internalType": "uint256",
          "name": "value",
          "type": "uint256"
        }
      ],
      "name": "TransferSingle",
      "type": "event"
    },
    {
      "anonymous": false,
      "inputs": [
        {
          "indexed": false,
          "internalType": "string",
          "name": "value",
          "type": "string"
        },
        {
          "indexed": true,
          "internalType": "uint256",
          "name": "id",
          "type": "uint256"
        }
      ],
      "name": "URI",
      "type": "event"
    },
    {
      "inputs": [
        {
          "internalType": "address",
          "name": "account",
          "type": "address"
        },
        {
          "internalType": "uint256",
          "name": "id",
          "type": "uint256"
        }
      ],
      "name": "balanceOf",
      "outputs": [
        {
          "internalType": "uint256",
          "name": "",
          "type": "uint256"
        }
      ],
      "stateMutability": "view",
      "type": "function"
    },
    {
      "inputs": [
        {
          "internalType": "address[]",
          "name": "accounts",
          "type": "address[]"
        },
        {
          "internalType": "uint256[]",
          "name": "ids",
          "type": "uint256[]"
        }
      ],
      "name": "balanceOfBatch",
      "outputs": [
        {
          "internalType": "uint256[]",
          "name": "",
          "type": "uint256[]"
        }
      ],
      "stateMutability": "view",
      "type": "function"
    },
    {
      "inputs": [
        {
          "internalType": "address",
          "name": "account",
          "type": "address"
        },
        {
          "internalType": "address",
          "name": "operator",
          "type": "address"
        }
      ],
      "name": "isApprovedForAll",
      "outputs": [
        {
          "internalType": "bool",
          "name": "",
          "type": "bool"
        }
      ],
      "stateMutability": "view",
      "type": "function"
    },
    {
      "inputs": [
        {
          "internalType": "address",
          "name": "to",
          "type": "address"
        },
        {
          "internalType": "uint256",
          "name": "id",
          "type": "uint256"
        },
        {
          "internalType": "uint256",
          "name": "amount",
          "type": "uint256"
        },
        {
          "internalType": "bytes",
          "name": "data",
          "type": "bytes"
        }
      ],
      "name": "mint",
      "outputs": [
        {
          "internalType": "bool",
          "name": "",
          "type": "bool"
        }
      ],
      "stateMutability": "nonpayable",
      "type": "function"
    },
    {
      "inputs": [],
      "name": "owner",
      "outputs": [
        {
          "internalType": "address",
          "name": "",
          "type": "address"
        }
      ],
      "stateMutability": "view",
      "type": "function"
    },
    {
      "inputs": [],
      "name": "renounceOwnership",
      "outputs": [],
      "stateMutability": "nonpayable",
      "type": "function"
    },
    {
      "inputs": [
        {
          "internalType": "address",
          "name": "from",
          "type": "address"
        },
        {
          "internalType": "address",
          "name": "to",
          "type": "address"
        },
        {
          "internalType": "uint256[]",
          "name": "ids",
          "type": "uint256[]"
        },
        {
          "internalType": "uint256[]",
          "name": "values",
          "type": "uint256[]"
        },
        {
          "internalType": "bytes",
          "name": "data",
          "type": "bytes"
        }
      ],
      "name": "safeBatchTransferFrom",
      "outputs": [],
      "stateMutability": "nonpayable",
      "type": "function"
    },
    {
      "inputs": [
        {
          "internalType": "address",
          "name": "from",
          "type": "address"
        },
        {
          "internalType": "address",
          "name": "to",
          "type": "address"
        },
        {
          "internalType": "uint256",
          "name": "id",
          "type": "uint256"
        },
        {
          "internalType": "uint256",
          "name": "value",
          "type": "uint256"
        },
        {
          "internalType": "bytes",
          "name": "data",
          "type": "bytes"
        }
      ],
      "name": "safeTransferFrom",
      "outputs": [],
      "stateMutability": "nonpayable",
      "type": "function"
    },
    {
      "inputs": [
        {
          "internalType": "address",
          "name": "operator",
          "type": "address"
        },
        {
          "internalType": "bool",
          "name": "approved",
          "type": "bool"
        }
      ],
      "name": "setApprovalForAll",
      "outputs": [],
      "stateMutability": "nonpayable",
      "type": "function"
    },
    {
      "inputs": [
        {
          "internalType": "uint256",
          "name": "id",
          "type": "uint256"
        },
        {
          "internalType": "string",
          "name": "newURI",
          "type": "string"
        }
      ],
      "name": "setTokenURI",
      "outputs": [],
      "stateMutability": "nonpayable",
      "type": "function"
    },
    {
      "inputs": [
        {
          "internalType": "bytes4",
          "name": "interfaceId",
          "type": "bytes4"
        }
      ],
      "name": "supportsInterface",
      "outputs": [
        {
          "internalType": "bool",
          "name": "",
          "type": "bool"
        }
      ],
      "stateMutability": "view",
      "type": "function"
    },
    {
      "inputs": [
        {
          "internalType": "address",
          "name": "newOwner",
          "type": "address"
        }
      ],
      "name": "transferOwnership",
      "outputs": [],
      "stateMutability": "nonpayable",
      "type": "function"
    },
    {
      "inputs": [
        {
          "internalType": "uint256",
          "name": "id",
          "type": "uint256"
        }
      ],
      "name": "uri",
      "outputs": [
        {
          "internalType": "string",
          "name": "",
          "type": "string"
        }
      ],
      "stateMutability": "view",
      "type": "function"
    }
  ],
  "bytecode": "0x60806040523480156200001157600080fd5b50336040518060600160405280602a8152602001620017db602a913962000038816200007a565b506001600160a01b0381166200006857604051631e4fbdf760e01b81526000600482015260240160405180910390fd5b62000073816200008c565b5062000251565b600262000088828262000185565b5050565b600380546001600160a01b038381166001600160a01b0319831681179093556040519116919082907f8be0079c531659141344cd1fd0a4f28419497f9722a3daafe3b4186f6b6457e090600090a35050565b634e487b7160e01b600052604160045260246000fd5b600181811c908216806200010957607f821691505b6020821081036200012a57634e487b7160e01b600052602260045260246000fd5b50919050565b601f82111562000180576000816000526020600020601f850160051c810160208610156200015b5750805b601f850160051c820191505b818110156200017c5782815560010162000167565b5050505b505050565b81516001600160401b03811115620001a157620001a1620000de565b620001b981620001b28454620000f4565b8462000130565b602080601f831160018114620001f15760008415620001d85750858301515b600019600386901b1c1916600185901b1785556200017c565b600085815260208120601f198616915b82811015620002225788860151825594840194600190910190840162000201565b5085821015620002415787850151600019600388901b60f8161c191681555b5050505050600190811b01905550565b61157a80620002616000396000f3fe608060405234801561001057600080fd5b50600436106100ce5760003560e01c8063715018a61161008c578063a22cb46511610066578063a22cb465146101ba578063e985e9c5146101cd578063f242432a146101e0578063f2fde38b146101f357600080fd5b8063715018a614610184578063731133e91461018c5780638da5cb5b1461019f57600080fd5b8062fdd58e146100d357806301ffc9a7146100f95780630e89341c1461011c578063162094c41461013c5780632eb2c2d6146101515780634e1273f414610164575b600080fd5b6100e66100e1366004610d07565b610206565b6040519081526020015b60405180910390f35b61010c610107366004610d47565b61022e565b60405190151581526020016100f0565b61012f61012a366004610d6b565b61027e565b6040516100f09190610dca565b61014f61014a366004610e7c565b610320565b005b61014f61015f366004610f8a565b610345565b610177610172366004611034565b6103b1565b6040516100f09190611126565b61014f61047e565b61010c61019a366004611139565b610492565b6003546040516001600160a01b0390911681526020016100f0565b61014f6101c836600461119a565b610536565b61010c6101db3660046111d6565b610545565b61014f6101ee366004611209565b610573565b61014f61020136600461126e565b6105d2565b6000818152602081815260408083206001600160a01b03861684529091529020545b92915050565b60006001600160e01b03198216636cdb3d1360e11b148061025f57506001600160e01b031982166303a24d0760e21b145b8061022857506301ffc9a760e01b6001600160e01b0319831614610228565b600081815260046020526040902080546060919061029b90611289565b80601f01602080910402602001604051908101604052809291908181526020018280546102c790611289565b80156103145780601f106102e957610100808354040283529160200191610314565b820191906000526020600020905b8154815290600101906020018083116102f757829003601f168201915b50505050509050919050565b610328610610565b6000828152600460205260409020610340828261130b565b505050565b336001600160a01b038616811480159061036657506103648682610545565b155b1561039c5760405163711bec9160e11b81526001600160a01b038083166004830152871660248201526044015b60405180910390fd5b6103a9868686868661063d565b505050505050565b606081518351146103e25781518351604051635b05999160e01b815260048101929092526024820152604401610393565b6000835167ffffffffffffffff8111156103fe576103fe610ddd565b604051908082528060200260200182016040528015610427578160200160208202803683370190505b50905060005b84518110156104765760208082028601015161045190602080840287010151610206565b828281518110610463576104636113cb565b602090810291909101015260010161042d565b509392505050565b610486610610565b61049060006106a4565b565b600061049c610610565b600083116104ec5760405162461bcd60e51b815260206004820181905260248201527f416d6f756e74206d7573742062652067726561746572207468616e207a65726f6044820152606401610393565b6104f8858585856106f6565b6040518060800160405280605481526020016114f16054913960008581526004602052604090209061052a908261130b565b50600195945050505050565b610541338383610753565b5050565b6001600160a01b03918216600090815260016020908152604080832093909416825291909152205460ff1690565b336001600160a01b038616811480159061059457506105928682610545565b155b156105c55760405163711bec9160e11b81526001600160a01b03808316600483015287166024820152604401610393565b6103a986868686866107e9565b6105da610610565b6001600160a01b03811661060457604051631e4fbdf760e01b815260006004820152602401610393565b61060d816106a4565b50565b6003546001600160a01b031633146104905760405163118cdaa760e01b8152336004820152602401610393565b6001600160a01b03841661066757604051632bfa23e760e11b815260006004820152602401610393565b6001600160a01b03851661069057604051626a0d4560e21b815260006004820152602401610393565b61069d8585858585610877565b5050505050565b600380546001600160a01b038381166001600160a01b0319831681179093556040519116919082907f8be0079c531659141344cd1fd0a4f28419497f9722a3daafe3b4186f6b6457e090600090a35050565b6001600160a01b03841661072057604051632bfa23e760e11b815260006004820152602401610393565b604080516001808252602082018690528183019081526060820185905260808201909252906103a9600087848487610877565b6001600160a01b03821661077c5760405162ced3e160e81b815260006004820152602401610393565b6001600160a01b03838116600081815260016020908152604080832094871680845294825291829020805460ff191686151590811790915591519182527f17307eab39ab6107e8899845ad3d59bd9653f200f220920489ca2b5937696c31910160405180910390a3505050565b6001600160a01b03841661081357604051632bfa23e760e11b815260006004820152602401610393565b6001600160a01b03851661083c57604051626a0d4560e21b815260006004820152602401610393565b6040805160018082526020820186905281830190815260608201859052608082019092529061086e8787848487610877565b50505050505050565b610883858585856108ca565b6001600160a01b0384161561069d57825133906001036108bc57602084810151908401516108b5838989858589610ade565b50506103a9565b6103a9818787878787610c02565b80518251146108f95781518151604051635b05999160e01b815260048101929092526024820152604401610393565b3360005b83518110156109ff576020818102858101820151908501909101516001600160a01b038816156109b0576000828152602081815260408083206001600160a01b038c16845290915290205481811015610989576040516303dee4c560e01b81526001600160a01b038a166004820152602481018290526044810183905260648101849052608401610393565b6000838152602081815260408083206001600160a01b038d16845290915290209082900390555b6001600160a01b038716156109f5576000828152602081815260408083206001600160a01b038b168452909152812080548392906109ef9084906113e1565b90915550505b50506001016108fd565b508251600103610a805760208301516000906020840151909150856001600160a01b0316876001600160a01b0316846001600160a01b03167fc3d58168c5ae7397731d063d5bbf3d657854427343f4c083240f7aacaa2d0f628585604051610a71929190918252602082015260400190565b60405180910390a4505061069d565b836001600160a01b0316856001600160a01b0316826001600160a01b03167f4a39dc06d4c0dbc64b70af90fd698a233a518aa5d07e595d983b8c0526c8f7fb8686604051610acf929190611402565b60405180910390a45050505050565b6001600160a01b0384163b156103a95760405163f23a6e6160e01b81526001600160a01b0385169063f23a6e6190610b229089908990889088908890600401611430565b6020604051808303816000875af1925050508015610b5d575060408051601f3d908101601f19168201909252610b5a91810190611475565b60015b610bc6573d808015610b8b576040519150601f19603f3d011682016040523d82523d6000602084013e610b90565b606091505b508051600003610bbe57604051632bfa23e760e11b81526001600160a01b0386166004820152602401610393565b805181602001fd5b6001600160e01b0319811663f23a6e6160e01b1461086e57604051632bfa23e760e11b81526001600160a01b0386166004820152602401610393565b6001600160a01b0384163b156103a95760405163bc197c8160e01b81526001600160a01b0385169063bc197c8190610c469089908990889088908890600401611492565b6020604051808303816000875af1925050508015610c81575060408051601f3d908101601f19168201909252610c7e91810190611475565b60015b610caf573d808015610b8b576040519150601f19603f3d011682016040523d82523d6000602084013e610b90565b6001600160e01b0319811663bc197c8160e01b1461086e57604051632bfa23e760e11b81526001600160a01b0386166004820152602401610393565b80356001600160a01b0381168114610d0257600080fd5b919050565b60008060408385031215610d1a57600080fd5b610d2383610ceb565b946020939093013593505050565b6001600160e01b03198116811461060d57600080fd5b600060208284031215610d5957600080fd5b8135610d6481610d31565b9392505050565b600060208284031215610d7d57600080fd5b5035919050565b6000815180845260005b81811015610daa57602081850181015186830182015201610d8e565b506000602082860101526020601f19601f83011685010191505092915050565b602081526000610d646020830184610d84565b634e487b7160e01b600052604160045260246000fd5b604051601f8201601f1916810167ffffffffffffffff81118282101715610e1c57610e1c610ddd565b604052919050565b600067ffffffffffffffff831115610e3e57610e3e610ddd565b610e51601f8401601f1916602001610df3565b9050828152838383011115610e6557600080fd5b828260208301376000602084830101529392505050565b60008060408385031215610e8f57600080fd5b82359150602083013567ffffffffffffffff811115610ead57600080fd5b8301601f81018513610ebe57600080fd5b610ecd85823560208401610e24565b9150509250929050565b600067ffffffffffffffff821115610ef157610ef1610ddd565b5060051b60200190565b600082601f830112610f0c57600080fd5b81356020610f21610f1c83610ed7565b610df3565b8083825260208201915060208460051b870101935086841115610f4357600080fd5b602086015b84811015610f5f5780358352918301918301610f48565b509695505050505050565b600082601f830112610f7b57600080fd5b610d6483833560208501610e24565b600080600080600060a08688031215610fa257600080fd5b610fab86610ceb565b9450610fb960208701610ceb565b9350604086013567ffffffffffffffff80821115610fd657600080fd5b610fe289838a01610efb565b94506060880135915080821115610ff857600080fd5b61100489838a01610efb565b9350608088013591508082111561101a57600080fd5b5061102788828901610f6a565b9150509295509295909350565b6000806040838503121561104757600080fd5b823567ffffffffffffffff8082111561105f57600080fd5b818501915085601f83011261107357600080fd5b81356020611083610f1c83610ed7565b82815260059290921b840181019181810190898411156110a257600080fd5b948201945b838610156110c7576110b886610ceb565b825294820194908201906110a7565b965050860135925050808211156110dd57600080fd5b50610ecd85828601610efb565b60008151808452602080850194506020840160005b8381101561111b578151875295820195908201906001016110ff565b509495945050505050565b602081526000610d6460208301846110ea565b6000806000806080858703121561114f57600080fd5b61115885610ceb565b93506020850135925060408501359150606085013567ffffffffffffffff81111561118257600080fd5b61118e87828801610f6a565b91505092959194509250565b600080604083850312156111ad57600080fd5b6111b683610ceb565b9150602083013580151581146111cb57600080fd5b809150509250929050565b600080604083850312156111e957600080fd5b6111f283610ceb565b915061120060208401610ceb565b90509250929050565b600080600080600060a0868803121561122157600080fd5b61122a86610ceb565b945061123860208701610ceb565b93506040860135925060608601359150608086013567ffffffffffffffff81111561126257600080fd5b61102788828901610f6a565b60006020828403121561128057600080fd5b610d6482610ceb565b600181811c9082168061129d57607f821691505b6020821081036112bd57634e487b7160e01b600052602260045260246000fd5b50919050565b601f821115610340576000816000526020600020601f850160051c810160208610156112ec5750805b601f850160051c820191505b818110156103a9578281556001016112f8565b815167ffffffffffffffff81111561132557611325610ddd565b611339816113338454611289565b846112c3565b602080601f83116001811461136e57600084156113565750858301515b600019600386901b1c1916600185901b1785556103a9565b600085815260208120601f198616915b8281101561139d5788860151825594840194600190910190840161137e565b50858210156113bb5787850151600019600388901b60f8161c191681555b5050505050600190811b01905550565b634e487b7160e01b600052603260045260246000fd5b8082018082111561022857634e487b7160e01b600052601160045260246000fd5b60408152600061141560408301856110ea565b828103602084015261142781856110ea565b95945050505050565b6001600160a01b03868116825285166020820152604081018490526060810183905260a06080820181905260009061146a90830184610d84565b979650505050505050565b60006020828403121561148757600080fd5b8151610d6481610d31565b6001600160a01b0386811682528516602082015260a0604082018190526000906114be908301866110ea565b82810360608401526114d081866110ea565b905082810360808401526114e48185610d84565b9897505050505050505056fe68747470733a2f2f697066732e696f2f697066732f516d59754b593435417138374c654c315235646862316871484c70365a46624a614350386a78714b4d314d5836792f626162655f727574685f312e6a736f6ea26469706673582212206d8fa09e878e277a338ad295fe1e94b39992a1004bc780a1fdc1aeb9b557f2ec64736f6c6343000818003368747470733a2f2f796f7572646f6d61696e2e636f6d2f6170692f746f6b656e2f7b69647d2e6a736f6e",
  "linkReferences": {},
  "deployedLinkReferences": {}
}